{
  "contractName": "TokenVesting",
  "abi": [
    {
      "inputs": [
        {
          "internalType": "uint256",
          "name": "_totalRewardtokenSupply",
          "type": "uint256"
        },
        {
          "internalType": "uint256",
          "name": "_start",
          "type": "uint256"
        }
      ],
      "stateMutability": "nonpayable",
      "type": "constructor"
    },
    {
      "anonymous": false,
      "inputs": [
        {
          "indexed": true,
          "internalType": "address",
          "name": "wallet",
          "type": "address"
        },
        {
          "indexed": false,
          "internalType": "uint256",
          "name": "amount",
          "type": "uint256"
        },
        {
          "indexed": false,
          "internalType": "uint256",
          "name": "date",
          "type": "uint256"
        }
      ],
      "name": "Claimed",
      "type": "event"
    },
    {
      "anonymous": false,
      "inputs": [
        {
          "indexed": true,
          "internalType": "address",
          "name": "previousOwner",
          "type": "address"
        },
        {
          "indexed": true,
          "internalType": "address",
          "name": "newOwner",
          "type": "address"
        }
      ],
      "name": "OwnershipTransferred",
      "type": "event"
    },
    {
      "anonymous": false,
      "inputs": [
        {
          "indexed": true,
          "internalType": "address",
          "name": "wallet",
          "type": "address"
        },
        {
          "indexed": false,
          "internalType": "uint256",
          "name": "amount",
          "type": "uint256"
        },
        {
          "indexed": false,
          "internalType": "uint256",
          "name": "date",
          "type": "uint256"
        },
        {
          "indexed": false,
          "internalType": "uint256",
          "name": "vestingAmount",
          "type": "uint256"
        },
        {
          "indexed": false,
          "internalType": "uint256",
          "name": "stakingAmountInBusd",
          "type": "uint256"
        }
      ],
      "name": "Stake",
      "type": "event"
    },
    {
      "anonymous": false,
      "inputs": [
        {
          "indexed": true,
          "internalType": "address",
          "name": "wallet",
          "type": "address"
        },
        {
          "indexed": false,
          "internalType": "uint256",
          "name": "amount",
          "type": "uint256"
        },
        {
          "indexed": false,
          "internalType": "uint256",
          "name": "date",
          "type": "uint256"
        },
        {
          "indexed": false,
          "internalType": "string",
          "name": "projectId",
          "type": "string"
        }
      ],
      "name": "Withdraw",
      "type": "event"
    },
    {
      "inputs": [],
      "name": "owner",
      "outputs": [
        {
          "internalType": "address",
          "name": "",
          "type": "address"
        }
      ],
      "stateMutability": "view",
      "type": "function",
      "constant": true
    },
    {
      "inputs": [],
      "name": "renounceOwnership",
      "outputs": [],
      "stateMutability": "nonpayable",
      "type": "function"
    },
    {
      "inputs": [],
      "name": "rewardToken",
      "outputs": [
        {
          "internalType": "address",
          "name": "",
          "type": "address"
        }
      ],
      "stateMutability": "view",
      "type": "function",
      "constant": true
    },
    {
      "inputs": [],
      "name": "start",
      "outputs": [
        {
          "internalType": "uint256",
          "name": "",
          "type": "uint256"
        }
      ],
      "stateMutability": "view",
      "type": "function",
      "constant": true
    },
    {
      "inputs": [],
      "name": "totalRewardtokenSupply",
      "outputs": [
        {
          "internalType": "uint256",
          "name": "",
          "type": "uint256"
        }
      ],
      "stateMutability": "view",
      "type": "function",
      "constant": true
    },
    {
      "inputs": [
        {
          "internalType": "address",
          "name": "newOwner",
          "type": "address"
        }
      ],
      "name": "transferOwnership",
      "outputs": [],
      "stateMutability": "nonpayable",
      "type": "function"
    },
    {
      "inputs": [
        {
          "internalType": "address",
          "name": "_address",
          "type": "address"
        }
      ],
      "name": "setRewardTokenAddress",
      "outputs": [],
      "stateMutability": "nonpayable",
      "type": "function"
    },
    {
      "inputs": [
        {
          "internalType": "uint256",
          "name": "_totalRewardtokenSupply",
          "type": "uint256"
        }
      ],
      "name": "setTotalRewardTokenSupply",
      "outputs": [],
      "stateMutability": "nonpayable",
      "type": "function"
    },
    {
      "inputs": [
        {
          "internalType": "uint256",
          "name": "_start",
          "type": "uint256"
        }
      ],
      "name": "setStartTimeForVesting",
      "outputs": [],
      "stateMutability": "nonpayable",
      "type": "function"
    },
    {
      "inputs": [],
      "name": "getSmartContractBalance",
      "outputs": [
        {
          "internalType": "uint256",
          "name": "",
          "type": "uint256"
        }
      ],
      "stateMutability": "view",
      "type": "function",
      "constant": true
    },
    {
      "inputs": [
        {
          "internalType": "address",
          "name": "_address",
          "type": "address"
        }
      ],
      "name": "getTotalAmountStakedbyUser",
      "outputs": [
        {
          "internalType": "uint256",
          "name": "",
          "type": "uint256"
        }
      ],
      "stateMutability": "view",
      "type": "function",
      "constant": true
    },
    {
      "inputs": [],
      "name": "getTotalAmountStaked",
      "outputs": [
        {
          "internalType": "uint256",
          "name": "",
          "type": "uint256"
        }
      ],
      "stateMutability": "view",
      "type": "function",
      "constant": true
    },
    {
      "inputs": [],
      "name": "getTotalAmountVestedAndClaimed",
      "outputs": [
        {
          "internalType": "uint256",
          "name": "",
          "type": "uint256"
        }
      ],
      "stateMutability": "view",
      "type": "function",
      "constant": true
    },
    {
      "inputs": [],
      "name": "getVestingSchedulesTotalAmount",
      "outputs": [
        {
          "internalType": "uint256",
          "name": "",
          "type": "uint256"
        }
      ],
      "stateMutability": "view",
      "type": "function",
      "constant": true
    },
    {
      "inputs": [],
      "name": "getAvailableTokensForVesting",
      "outputs": [
        {
          "internalType": "uint256",
          "name": "",
          "type": "uint256"
        }
      ],
      "stateMutability": "view",
      "type": "function",
      "constant": true
    },
    {
      "inputs": [
        {
          "internalType": "uint256",
          "name": "_stakingAmount",
          "type": "uint256"
        },
        {
          "internalType": "address",
          "name": "_beneficiary",
          "type": "address"
        },
        {
          "internalType": "uint256",
          "name": "_duration",
          "type": "uint256"
        },
        {
          "internalType": "uint256",
          "name": "_vestingAmount",
          "type": "uint256"
        },
        {
          "internalType": "uint256",
          "name": "_stakingAmountInBusd",
          "type": "uint256"
        }
      ],
      "name": "stake",
      "outputs": [
        {
          "internalType": "bytes32",
          "name": "",
          "type": "bytes32"
        }
      ],
      "stateMutability": "payable",
      "type": "function",
      "payable": true
    },
    {
      "inputs": [
        {
          "internalType": "address",
          "name": "holder",
          "type": "address"
        },
        {
          "internalType": "uint256",
          "name": "index",
          "type": "uint256"
        }
      ],
      "name": "computeVestingScheduleIdForAddressAndIndex",
      "outputs": [
        {
          "internalType": "bytes32",
          "name": "",
          "type": "bytes32"
        }
      ],
      "stateMutability": "pure",
      "type": "function",
      "constant": true
    },
    {
      "inputs": [
        {
          "internalType": "bytes32",
          "name": "vestingScheduleId",
          "type": "bytes32"
        }
      ],
      "name": "claim",
      "outputs": [],
      "stateMutability": "payable",
      "type": "function",
      "payable": true
    },
    {
      "inputs": [
        {
          "internalType": "address",
          "name": "_address",
          "type": "address"
        },
        {
          "internalType": "string",
          "name": "projectId",
          "type": "string"
        }
      ],
      "name": "withdraw",
      "outputs": [],
      "stateMutability": "payable",
      "type": "function",
      "payable": true
    }
  ],
  "bytecode": "0x60806040526000600260006101000a81548173ffffffffffffffffffffffffffffffffffffffff021916908373ffffffffffffffffffffffffffffffffffffffff1602179055503480156200005357600080fd5b506040516200231e3803806200231e833981810160405281019062000079919062000199565b620000996200008d620000b660201b60201c565b620000be60201b60201c565b6001808190555081600381905550806004819055505050620001fe565b600033905090565b60008060009054906101000a900473ffffffffffffffffffffffffffffffffffffffff169050816000806101000a81548173ffffffffffffffffffffffffffffffffffffffff021916908373ffffffffffffffffffffffffffffffffffffffff1602179055508173ffffffffffffffffffffffffffffffffffffffff168173ffffffffffffffffffffffffffffffffffffffff167f8be0079c531659141344cd1fd0a4f28419497f9722a3daafe3b4186f6b6457e060405160405180910390a35050565b6000815190506200019381620001e4565b92915050565b60008060408385031215620001ad57600080fd5b6000620001bd8582860162000182565b9250506020620001d08582860162000182565b9150509250929050565b6000819050919050565b620001ef81620001da565b8114620001fb57600080fd5b50565b612110806200020e6000396000f3fe6080604052600436106101145760003560e01c8063715018a6116100a0578063b9fd49fb11610064578063b9fd49fb14610373578063bd66528a1461039e578063be9a6555146103ba578063f2fde38b146103e5578063f7c618c11461040e57610114565b8063715018a61461028e5780638af104da146102a55780638da5cb5b146102e25780639a6acf201461030d578063a5a75f1b1461033657610114565b806348deb471116100e757806348deb471146101c35780635145cbc0146101ee578063530c515e146102195780636e6b110114610249578063702bd70f1461026557610114565b806311363a2214610119578063246d9fe81461014457806333e3696c1461016f57806335d02b731461019a575b600080fd5b34801561012557600080fd5b5061012e610439565b60405161013b91906119ec565b60405180910390f35b34801561015057600080fd5b50610159610457565b60405161016691906119ec565b60405180910390f35b34801561017b57600080fd5b50610184610469565b60405161019191906119ec565b60405180910390f35b3480156101a657600080fd5b506101c160048036038101906101bc91906114c2565b61046f565b005b3480156101cf57600080fd5b506101d8610481565b6040516101e591906119ec565b60405180910390f35b3480156101fa57600080fd5b50610203610493565b60405161021091906119ec565b60405180910390f35b610233600480360381019061022e91906114eb565b6104a3565b6040516102409190611851565b60405180910390f35b610263600480360381019061025e91906113e0565b61064c565b005b34801561027157600080fd5b5061028c600480360381019061028791906114c2565b61075d565b005b34801561029a57600080fd5b506102a361076f565b005b3480156102b157600080fd5b506102cc60048036038101906102c79190611434565b610783565b6040516102d99190611851565b60405180910390f35b3480156102ee57600080fd5b506102f76107b6565b604051610304919061180d565b60405180910390f35b34801561031957600080fd5b50610334600480360381019061032f91906113b7565b6107df565b005b34801561034257600080fd5b5061035d600480360381019061035891906113b7565b61082b565b60405161036a91906119ec565b60405180910390f35b34801561037f57600080fd5b5061038861087c565b60405161039591906119ec565b60405180910390f35b6103b860048036038101906103b39190611499565b61088e565b005b3480156103c657600080fd5b506103cf610b75565b6040516103dc91906119ec565b60405180910390f35b3480156103f157600080fd5b5061040c600480360381019061040791906113b7565b610b7b565b005b34801561041a57600080fd5b50610423610bff565b604051610430919061180d565b60405180910390f35b6000610452600754600354610c2590919063ffffffff16565b905090565b6000610461610c3b565b600654905090565b60035481565b610477610c3b565b8060048190555050565b600061048b610c3b565b600a54905090565b600061049d610c3b565b47905090565b60008086116104e7576040517f08c379a00000000000000000000000000000000000000000000000000000000081526004016104de906118ec565b60405180910390fd5b8534101561052a576040517f08c379a0000000000000000000000000000000000000000000000000000000008152600401610521906118ac565b60405180910390fd5b61057c86600560008873ffffffffffffffffffffffffffffffffffffffff1673ffffffffffffffffffffffffffffffffffffffff16815260200190815260200160002054610cb990919063ffffffff16565b600560008773ffffffffffffffffffffffffffffffffffffffff1673ffffffffffffffffffffffffffffffffffffffff168152602001908152602001600020819055506105d486600654610cb990919063ffffffff16565b60068190555060006105e7868686610ccf565b90503373ffffffffffffffffffffffffffffffffffffffff167f2720efa4b2dd4f3f8a347da3cbd290a522e9432da9072c5b8e6300496fdde2828860045487876040516106379493929190611a6e565b60405180910390a28091505095945050505050565b610654610c3b565b600047905060008373ffffffffffffffffffffffffffffffffffffffff164760405161067f906117f8565b60006040518083038185875af1925050503d80600081146106bc576040519150601f19603f3d011682016040523d82523d6000602084013e6106c1565b606091505b5050905080610705576040517f08c379a00000000000000000000000000000000000000000000000000000000081526004016106fc906118cc565b60405180910390fd5b8373ffffffffffffffffffffffffffffffffffffffff167f9125c3e2039266de565d729b618a75f8c43acd31abb9a6ab9dbfce901496ef9c83428660405161074f93929190611a30565b60405180910390a250505050565b610765610c3b565b8060038190555050565b610777610c3b565b6107816000610f90565b565b600082826040516020016107989291906117cc565b60405160208183030381529060405280519060200120905092915050565b60008060009054906101000a900473ffffffffffffffffffffffffffffffffffffffff16905090565b6107e7610c3b565b80600260006101000a81548173ffffffffffffffffffffffffffffffffffffffff021916908373ffffffffffffffffffffffffffffffffffffffff16021790555050565b6000610835610c3b565b600560008373ffffffffffffffffffffffffffffffffffffffff1673ffffffffffffffffffffffffffffffffffffffff168152602001908152602001600020549050919050565b6000610886610c3b565b600754905090565b600260015414156108d4576040517f08c379a00000000000000000000000000000000000000000000000000000000081526004016108cb906119cc565b60405180910390fd5b60026001819055506000600960008381526020019081526020016000206003015414610935576040517f08c379a000000000000000000000000000000000000000000000000000000000815260040161092c9061198c565b60405180910390fd5b600073ffffffffffffffffffffffffffffffffffffffff16600260009054906101000a900473ffffffffffffffffffffffffffffffffffffffff1673ffffffffffffffffffffffffffffffffffffffff1614156109c7576040517f08c379a00000000000000000000000000000000000000000000000000000000081526004016109be9061188c565b60405180910390fd5b6000600960008381526020019081526020016000209050610a81816040518060a00160405290816000820160009054906101000a900460ff161515151581526020016000820160019054906101000a900473ffffffffffffffffffffffffffffffffffffffff1673ffffffffffffffffffffffffffffffffffffffff1673ffffffffffffffffffffffffffffffffffffffff1681526020016001820154815260200160028201548152602001600382015481525050611054565b15610b6a57610a8f82611095565b60096000838152602001908152602001600020600201546009600084815260200190815260200160002060030181905550610aeb6009600084815260200190815260200160002060020154600a54610c2590919063ffffffff16565b600a819055508060000160019054906101000a900473ffffffffffffffffffffffffffffffffffffffff1673ffffffffffffffffffffffffffffffffffffffff167f987d620f307ff6b94d58743cb7a7509f24071586a77759b77c2d4e29f75a2f9a826002015442604051610b61929190611a07565b60405180910390a25b506001808190555050565b60045481565b610b83610c3b565b600073ffffffffffffffffffffffffffffffffffffffff168173ffffffffffffffffffffffffffffffffffffffff161415610bf3576040517f08c379a0000000000000000000000000000000000000000000000000000000008152600401610bea9061186c565b60405180910390fd5b610bfc81610f90565b50565b600260009054906101000a900473ffffffffffffffffffffffffffffffffffffffff1681565b60008183610c339190611b86565b905092915050565b610c4361127b565b73ffffffffffffffffffffffffffffffffffffffff16610c616107b6565b73ffffffffffffffffffffffffffffffffffffffff1614610cb7576040517f08c379a0000000000000000000000000000000000000000000000000000000008152600401610cae9061190c565b60405180910390fd5b565b60008183610cc79190611b30565b905092915050565b600081610cda611283565b1015610d1b576040517f08c379a0000000000000000000000000000000000000000000000000000000008152600401610d12906119ac565b60405180910390fd5b60008311610d5e576040517f08c379a0000000000000000000000000000000000000000000000000000000008152600401610d559061194c565b60405180910390fd5b60008211610da1576040517f08c379a0000000000000000000000000000000000000000000000000000000008152600401610d989061192c565b60405180910390fd5b6000610dac856112a1565b90506040518060a001604052806001151581526020018673ffffffffffffffffffffffffffffffffffffffff16815260200185815260200184815260200160008152506009600083815260200190815260200160002060008201518160000160006101000a81548160ff02191690831515021790555060208201518160000160016101000a81548173ffffffffffffffffffffffffffffffffffffffff021916908373ffffffffffffffffffffffffffffffffffffffff160217905550604082015181600101556060820151816002015560808201518160030155905050610e9f83600a54610cb990919063ffffffff16565b600a81905550610eba83600754610cb990919063ffffffff16565b60078190555060088190806001815401808255809150506001900390600052602060002001600090919091909150556000600b60008773ffffffffffffffffffffffffffffffffffffffff1673ffffffffffffffffffffffffffffffffffffffff168152602001908152602001600020549050610f41600182610cb990919063ffffffff16565b600b60008873ffffffffffffffffffffffffffffffffffffffff1673ffffffffffffffffffffffffffffffffffffffff1681526020019081526020016000208190555081925050509392505050565b60008060009054906101000a900473ffffffffffffffffffffffffffffffffffffffff169050816000806101000a81548173ffffffffffffffffffffffffffffffffffffffff021916908373ffffffffffffffffffffffffffffffffffffffff1602179055508173ffffffffffffffffffffffffffffffffffffffff168173ffffffffffffffffffffffffffffffffffffffff167f8be0079c531659141344cd1fd0a4f28419497f9722a3daafe3b4186f6b6457e060405160405180910390a35050565b60008061105f6112f3565b905061107a8360400151600454610cb990919063ffffffff16565b811061108a576001915050611090565b60009150505b919050565b600060096000838152602001908152602001600020905060008160000160019054906101000a900473ffffffffffffffffffffffffffffffffffffffff1673ffffffffffffffffffffffffffffffffffffffff163373ffffffffffffffffffffffffffffffffffffffff16149050600061110d6107b6565b73ffffffffffffffffffffffffffffffffffffffff163373ffffffffffffffffffffffffffffffffffffffff1614905081806111465750805b611185576040517f08c379a000000000000000000000000000000000000000000000000000000000815260040161117c9061196c565b60405180910390fd5b60008360000160019054906101000a900473ffffffffffffffffffffffffffffffffffffffff169050600260009054906101000a900473ffffffffffffffffffffffffffffffffffffffff1673ffffffffffffffffffffffffffffffffffffffff1663a9059cbb8260096000898152602001908152602001600020600201546040518363ffffffff1660e01b8152600401611221929190611828565b602060405180830381600087803b15801561123b57600080fd5b505af115801561124f573d6000803e3d6000fd5b505050506040513d601f19601f820116820180604052508101906112739190611470565b505050505050565b600033905090565b600061129c600754600354610c2590919063ffffffff16565b905090565b60006112ec82600b60008573ffffffffffffffffffffffffffffffffffffffff1673ffffffffffffffffffffffffffffffffffffffff16815260200190815260200160002054610783565b9050919050565b600042905090565b600061130e61130984611ad8565b611ab3565b90508281526020810184848401111561132657600080fd5b611331848285611c42565b509392505050565b6000813590506113488161207e565b92915050565b60008151905061135d81612095565b92915050565b600081359050611372816120ac565b92915050565b600082601f83011261138957600080fd5b81356113998482602086016112fb565b91505092915050565b6000813590506113b1816120c3565b92915050565b6000602082840312156113c957600080fd5b60006113d784828501611339565b91505092915050565b600080604083850312156113f357600080fd5b600061140185828601611339565b925050602083013567ffffffffffffffff81111561141e57600080fd5b61142a85828601611378565b9150509250929050565b6000806040838503121561144757600080fd5b600061145585828601611339565b9250506020611466858286016113a2565b9150509250929050565b60006020828403121561148257600080fd5b60006114908482850161134e565b91505092915050565b6000602082840312156114ab57600080fd5b60006114b984828501611363565b91505092915050565b6000602082840312156114d457600080fd5b60006114e2848285016113a2565b91505092915050565b600080600080600060a0868803121561150357600080fd5b6000611511888289016113a2565b955050602061152288828901611339565b9450506040611533888289016113a2565b9350506060611544888289016113a2565b9250506080611555888289016113a2565b9150509295509295909350565b61156b81611c0c565b82525050565b61157a81611bba565b82525050565b61159161158c82611bba565b611cb5565b82525050565b6115a081611bd8565b82525050565b60006115b182611b09565b6115bb8185611b1f565b93506115cb818560208601611c51565b6115d481611d41565b840191505092915050565b60006115ec602683611b1f565b91506115f782611d5f565b604082019050919050565b600061160f603b83611b1f565b915061161a82611dae565b604082019050919050565b6000611632603f83611b1f565b915061163d82611dfd565b604082019050919050565b6000611655601883611b1f565b915061166082611e4c565b602082019050919050565b6000611678601483611b1f565b915061168382611e75565b602082019050919050565b600061169b602083611b1f565b91506116a682611e9e565b602082019050919050565b60006116be602083611b1f565b91506116c982611ec7565b602082019050919050565b60006116e1602283611b1f565b91506116ec82611ef0565b604082019050919050565b6000611704604283611b1f565b915061170f82611f3f565b606082019050919050565b6000611727600083611b14565b915061173282611fb4565b600082019050919050565b600061174a601783611b1f565b915061175582611fb7565b602082019050919050565b600061176d604a83611b1f565b915061177882611fe0565b606082019050919050565b6000611790601f83611b1f565b915061179b82612055565b602082019050919050565b6117af81611c02565b82525050565b6117c66117c182611c02565b611cd9565b82525050565b60006117d88285611580565b6014820191506117e882846117b5565b6020820191508190509392505050565b60006118038261171a565b9150819050919050565b60006020820190506118226000830184611571565b92915050565b600060408201905061183d6000830185611562565b61184a60208301846117a6565b9392505050565b60006020820190506118666000830184611597565b92915050565b60006020820190508181036000830152611885816115df565b9050919050565b600060208201905081810360008301526118a581611602565b9050919050565b600060208201905081810360008301526118c581611625565b9050919050565b600060208201905081810360008301526118e581611648565b9050919050565b600060208201905081810360008301526119058161166b565b9050919050565b600060208201905081810360008301526119258161168e565b9050919050565b60006020820190508181036000830152611945816116b1565b9050919050565b60006020820190508181036000830152611965816116d4565b9050919050565b60006020820190508181036000830152611985816116f7565b9050919050565b600060208201905081810360008301526119a58161173d565b9050919050565b600060208201905081810360008301526119c581611760565b9050919050565b600060208201905081810360008301526119e581611783565b9050919050565b6000602082019050611a0160008301846117a6565b92915050565b6000604082019050611a1c60008301856117a6565b611a2960208301846117a6565b9392505050565b6000606082019050611a4560008301866117a6565b611a5260208301856117a6565b8181036040830152611a6481846115a6565b9050949350505050565b6000608082019050611a8360008301876117a6565b611a9060208301866117a6565b611a9d60408301856117a6565b611aaa60608301846117a6565b95945050505050565b6000611abd611ace565b9050611ac98282611c84565b919050565b6000604051905090565b600067ffffffffffffffff821115611af357611af2611d12565b5b611afc82611d41565b9050602081019050919050565b600081519050919050565b600081905092915050565b600082825260208201905092915050565b6000611b3b82611c02565b9150611b4683611c02565b9250827fffffffffffffffffffffffffffffffffffffffffffffffffffffffffffffffff03821115611b7b57611b7a611ce3565b5b828201905092915050565b6000611b9182611c02565b9150611b9c83611c02565b925082821015611baf57611bae611ce3565b5b828203905092915050565b6000611bc582611be2565b9050919050565b60008115159050919050565b6000819050919050565b600073ffffffffffffffffffffffffffffffffffffffff82169050919050565b6000819050919050565b6000611c1782611c1e565b9050919050565b6000611c2982611c30565b9050919050565b6000611c3b82611be2565b9050919050565b82818337600083830152505050565b60005b83811015611c6f578082015181840152602081019050611c54565b83811115611c7e576000848401525b50505050565b611c8d82611d41565b810181811067ffffffffffffffff82111715611cac57611cab611d12565b5b80604052505050565b6000611cc082611cc7565b9050919050565b6000611cd282611d52565b9050919050565b6000819050919050565b7f4e487b7100000000000000000000000000000000000000000000000000000000600052601160045260246000fd5b7f4e487b7100000000000000000000000000000000000000000000000000000000600052604160045260246000fd5b6000601f19601f8301169050919050565b60008160601b9050919050565b7f4f776e61626c653a206e6577206f776e657220697320746865207a65726f206160008201527f6464726573730000000000000000000000000000000000000000000000000000602082015250565b7f52657761726420546f6b656e2061646472657373206d7573742062652073657460008201527f20746f2074686520617070726f70726961746520616464726573730000000000602082015250565b7f546f6b656e732073656e74206d7573742062652067726561746572207468616e60008201527f206f7220657175616c20746f20746865207374616b696e6720616d6f756e7400602082015250565b7f5769746864726177206e6f74205375636365737366756c210000000000000000600082015250565b7f5374616b696e6720416d6f756e74206973203021000000000000000000000000600082015250565b7f4f776e61626c653a2063616c6c6572206973206e6f7420746865206f776e6572600082015250565b7f546f6b656e56657374696e673a20616d6f756e74206d757374206265203e2030600082015250565b7f546f6b656e56657374696e673a206475726174696f6e206d757374206265203e60008201527f2030000000000000000000000000000000000000000000000000000000000000602082015250565b7f546f6b656e56657374696e673a206f6e6c792062656e6566696369617279206160008201527f6e64206f776e65722063616e2072656c656173652076657374656420746f6b6560208201527f6e73000000000000000000000000000000000000000000000000000000000000604082015250565b50565b7f416d6f756e7420616c72656164792072656c6561736564000000000000000000600082015250565b7f546f6b656e56657374696e673a2063616e6e6f7420637265617465207665737460008201527f696e67207363686564756c652062656361757365206e6f74207375666669636960208201527f656e7420746f6b656e7300000000000000000000000000000000000000000000604082015250565b7f5265656e7472616e637947756172643a207265656e7472616e742063616c6c00600082015250565b61208781611bba565b811461209257600080fd5b50565b61209e81611bcc565b81146120a957600080fd5b50565b6120b581611bd8565b81146120c057600080fd5b50565b6120cc81611c02565b81146120d757600080fd5b5056fea2646970667358221220014b301738ed46b8e3b89fe1e9f6bad802eeaf556733688628469189669e74bc64736f6c63430008040033",
  "immutableReferences": {},
  "source": "// SPDX-License-Identifier: MIT\npragma solidity ^0.8.4;\npragma abicoder v2;\nimport \"@openzeppelin/contracts/access/Ownable.sol\";\nimport \"@openzeppelin/contracts/utils/math/SafeMath.sol\";\nimport \"@openzeppelin/contracts/token/ERC20/IERC20.sol\";\nimport \"@openzeppelin/contracts/token/ERC20/utils/SafeERC20.sol\";\nimport \"@openzeppelin/contracts/security/ReentrancyGuard.sol\";\n\ncontract TokenVesting is Ownable,ReentrancyGuard {\n    using SafeMath for uint256;\n    using SafeERC20 for IERC20;\n    struct VestingSchedule{\n        bool initialized;\n        address  beneficiary;\n        uint256  duration;\n        uint256 amountTotal;\n        uint256  released;\n    }\n    address public rewardToken = address(0x0);\n    uint256 public totalRewardtokenSupply;\n    uint256 public start;\n    mapping(address => uint256) private totalAmountStakedPerUser;\n    uint256 private totalAmountStaked;\n    uint256 private totalAmountVestedAndClaimed;\n    bytes32[] private vestingSchedulesIds;\n    mapping(bytes32 => VestingSchedule) private vestingSchedules;\n    uint256 private vestingSchedulesTotalAmount;\n    mapping(address => uint256) private holdersVestingCount;\n    event Stake(address indexed wallet, uint256 amount, uint256 date, uint256 vestingAmount, uint256 stakingAmountInBusd);\n    event Withdraw(address indexed wallet, uint256 amount, uint256 date, string projectId);\n    event Claimed(address indexed wallet, uint256 amount, uint256 date);\n    constructor(uint256 _totalRewardtokenSupply, uint256 _start) {\n        totalRewardtokenSupply = _totalRewardtokenSupply;\n        start = _start;\n    }\n    function setRewardTokenAddress(address _address) public onlyOwner {\n        rewardToken = _address;\n    }\n    function setTotalRewardTokenSupply(uint256 _totalRewardtokenSupply) public onlyOwner {\n        totalRewardtokenSupply = _totalRewardtokenSupply;\n    }\n    function setStartTimeForVesting(uint256 _start) public onlyOwner{\n        start = _start;\n    }\n    function getSmartContractBalance() public view onlyOwner returns(uint256) {\n        return address(this).balance;\n    }\n    function getTotalAmountStakedbyUser(address _address) public view onlyOwner returns(uint256){\n        return totalAmountStakedPerUser[_address];\n    }\n    function getTotalAmountStaked() public view onlyOwner returns(uint256) {\n        return totalAmountStaked;\n    }\n    function getTotalAmountVestedAndClaimed() public view onlyOwner returns(uint256){\n        return totalAmountVestedAndClaimed;\n    }\n    function getVestingSchedulesTotalAmount() public view onlyOwner returns(uint256) {\n        return vestingSchedulesTotalAmount;\n    }\n    function getAvailableTokensForVesting() public view returns(uint256){\n        return totalRewardtokenSupply.sub(totalAmountVestedAndClaimed);\n    }\n    function stake(\n        uint256 _stakingAmount,\n        address _beneficiary,\n        uint256 _duration,\n        uint256 _vestingAmount,\n        uint256 _stakingAmountInBusd)\n        public payable returns(bytes32){\n            require(_stakingAmount > 0, \"Staking Amount is 0!\");\n            require(msg.value >= _stakingAmount, \"Tokens sent must be greater than or equal to the staking amount\");\n            totalAmountStakedPerUser[_beneficiary] = totalAmountStakedPerUser[_beneficiary].add(_stakingAmount);\n            totalAmountStaked = totalAmountStaked.add(_stakingAmount);\n            payable(address(this)).call{value: msg.value};\n            bytes32 vestingScheduleId = createVestingSchedule(_beneficiary, _duration, _vestingAmount);\n            emit Stake(msg.sender, _stakingAmount, start, _vestingAmount, _stakingAmountInBusd);\n            return vestingScheduleId;\n        }\n    function createVestingSchedule(\n        address _beneficiary,\n        uint256 _duration,\n        uint256 _amount\n    )\n        internal\n        returns(bytes32){\n        require(\n            getWithdrawableAmount() >= _amount,\n            \"TokenVesting: cannot create vesting schedule because not sufficient tokens\"\n        );\n        require(_duration > 0, \"TokenVesting: duration must be > 0\");\n        require(_amount > 0, \"TokenVesting: amount must be > 0\");\n        bytes32 vestingScheduleId = computeNextVestingScheduleIdForHolder(_beneficiary);\n        vestingSchedules[vestingScheduleId] = VestingSchedule(\n            true,\n            _beneficiary,\n            _duration,\n            _amount,\n            0\n        );\n        vestingSchedulesTotalAmount = vestingSchedulesTotalAmount.add(_amount);\n        totalAmountVestedAndClaimed = totalAmountVestedAndClaimed.add(_amount);\n        vestingSchedulesIds.push(vestingScheduleId);\n        uint256 currentVestingCount = holdersVestingCount[_beneficiary];\n        holdersVestingCount[_beneficiary] = currentVestingCount.add(1);\n        return vestingScheduleId;\n    }\n     function getWithdrawableAmount()\n        internal\n        view\n        returns(uint256){\n        return totalRewardtokenSupply.sub(totalAmountVestedAndClaimed);\n    }\n    function computeNextVestingScheduleIdForHolder(address holder)\n        internal\n        view\n        returns(bytes32){\n        return computeVestingScheduleIdForAddressAndIndex(holder, holdersVestingCount[holder]);\n    }\n    function computeVestingScheduleIdForAddressAndIndex(address holder, uint256 index)\n        public\n        pure\n        returns(bytes32){\n        return keccak256(abi.encodePacked(holder, index));\n    }\n    function claim(bytes32 vestingScheduleId)\n    public nonReentrant payable\n    {\n        require(vestingSchedules[vestingScheduleId].released == 0, \"Amount already released\");\n        require(rewardToken != address(0x0), \"Reward Token address must be set to the appropriate address\");\n        VestingSchedule storage vestingSchedule = vestingSchedules[vestingScheduleId];\n        if(isEligibleForRelease(vestingSchedule)){\n            releaseAmount(vestingScheduleId);\n            vestingSchedules[vestingScheduleId].released = vestingSchedules[vestingScheduleId].amountTotal;\n            vestingSchedulesTotalAmount = vestingSchedulesTotalAmount.sub(vestingSchedules[vestingScheduleId].amountTotal);\n            emit Claimed(vestingSchedule.beneficiary, vestingSchedule.amountTotal, block.timestamp);\n        }\n    }\n    function releaseAmount(bytes32 vestingScheduleId)\n    internal{\n        VestingSchedule storage vestingSchedule = vestingSchedules[vestingScheduleId];\n        bool isBeneficiary = msg.sender == vestingSchedule.beneficiary;\n        bool isOwner = msg.sender == owner();\n        require(\n            isBeneficiary || isOwner,\n            \"TokenVesting: only beneficiary and owner can release vested tokens\"\n        );\n        address payable beneficiaryPayable = payable(vestingSchedule.beneficiary);\n        IERC20(rewardToken).transfer(beneficiaryPayable, vestingSchedules[vestingScheduleId].amountTotal);\n    }\n    function isEligibleForRelease(VestingSchedule memory vestingSchedule)\n    internal\n    view\n    returns(bool){\n        uint256 currentTime = getCurrentTime();\n        if (currentTime >= start.add(vestingSchedule.duration)) {\n            return true;\n        }\n        return false;\n    }\n    function getCurrentTime()\n        internal\n        virtual\n        view\n        returns(uint256){\n        return block.timestamp;\n    }\n    function withdraw(address _address, string memory projectId) payable public onlyOwner {\n        uint256 withdrawalAmount = address(this).balance;\n        (bool os, ) = payable(_address).call{value: address(this).balance}(\"\");\n        require(os, \"Withdraw not Successful!\");\n        emit Withdraw(_address, withdrawalAmount, block.timestamp, projectId);\n    }\n}",
  "sourcePath": "/Users/amiteshgarg/Desktop/Smart Contracts/push_22July2022/contracts/TokenVesting.sol",
  "compiler": {
    "name": "solc",
    "version": "0.8.4+commit.c7e474f2.Emscripten.clang"
  },
  "schemaVersion": "3.4.8",
  "updatedAt": "2022-07-22T08:58:55.373Z",
  "networkType": "ethereum",
  "devdoc": {
    "kind": "dev",
    "methods": {
      "owner()": {
        "details": "Returns the address of the current owner."
      },
      "renounceOwnership()": {
        "details": "Leaves the contract without owner. It will not be possible to call `onlyOwner` functions anymore. Can only be called by the current owner. NOTE: Renouncing ownership will leave the contract without an owner, thereby removing any functionality that is only available to the owner."
      },
      "transferOwnership(address)": {
        "details": "Transfers ownership of the contract to a new account (`newOwner`). Can only be called by the current owner."
      }
    },
    "version": 1
  },
  "userdoc": {
    "kind": "user",
    "methods": {},
    "version": 1
  }
}